DSE      00008770Aracaju                                                                      00014223São Conrado                                                                  00000000                                                                        Rua                                                                                                        00722557A                                                                       R A                                                                     49042163NS                                                                                                        
DSE      00008770Aracaju                                                                      00014206Jabotiana                                                                    00000000                                                                        Rua                                                                                                        00722317A                                                                       R A                                 (Anexo IV)                          49095280NS                                                                                                        
DSE      00008770Aracaju                                                                      00014206Jabotiana                                                                    00000000                                                                        Rua                                                                                                        00722324A                                                                       R A                                 (Anexo III)                         49095603NS                                                                                                        
DSE      00008770Aracaju                                                                      00014206Jabotiana                                                                    00000000                                                                        Rua                                                                                                        00722325A                                                                       R A                                 (Anexo I)                           49095615NS                                                                                                        
DSE      00008770Aracaju                                                                      00014206Jabotiana                                                                    00000000                                                                        Rua                                                                                                        00722348A                                                                       R A                                 (Jd Coqueiros)                      49096270NS                                                                                                        
DSE      00008770Aracaju                                                                      00014192América                                                                      00000000                                                                        Rua                                                                                                        00722286A                                                                       R A                                 (Cj Mª do Carmo)                    49080620NS                                                                                                        
DSE      00008770Aracaju                                                                      00014191Aeroporto                                                                    00000000                                                                        Rua                                                                                                        00723342A                                                                       R A                                 (Lot Prainha)                       49038461NS                                                                                                        
DSE      00008770Aracaju                                                                      00014228Santa Maria                                                                  00000000                                                                        Rua                                                                                                        00723333A                                                                       R A                                 (Rec Cajueiros)                     49044532NS                                                                                                        
DSE      00008770Aracaju                                                                      00066492Dom Luciano                                                                  00000000                                                                        Rua                                                                                                        00725976A                                                                       R A                                 (Lot Moema Meire)                   49071323NS                                                                                                        
DSE      00008770Aracaju                                                                      00014217Ponto Novo                                                                   00000000                                                                        Rua                                                                                                        00722421A                                                                       R A                                 (Prq Diamante)                      49047026NS                                                                                                        
DSE      00008770Aracaju                                                                      00030721Zona de Expansão (Aruana)                                                    00000000                                                                        Rua                                                                                                        00726909A                                                                       R A                                 (Lot Jd Costa Mar)                  49000305NS                                                                                                        
DSE      00008770Aracaju                                                                      00014191Aeroporto                                                                    00000000                                                                        Rua                                                                                                        00724405A                                                                       R A                                 (Lot Chalés)                        49037083NS                                                                                                        
DSE      00008770Aracaju                                                                      00014194Bugio                                                                        00000000                                                                        Rua                                                                                                        00631850A                                                                       R A                                 (Lot Anchietão)                     49090230NS                                                                                                        
DSE      00008770Aracaju                                                                      00066492Dom Luciano                                                                  00000000                                                                        Rua                                                                                                        00725812A                                                                       R A                                 (Lot Dendê)                         49071111NS                                                                                                        
DSE      00008770Aracaju                                                                      00066492Dom Luciano                                                                  00000000                                                                        Rua                                                                                                        00725836A                                                                       R A                                 (Lot Tia Caçula)                    49071270NS                                                                                                        
DSE      00008770Aracaju                                                                      00066492Dom Luciano                                                                  00000000                                                                        Rua                                                                                                        00725846A                                                                       R A                                 (Lot Indara)                        49071232NS                                                                                                        
DSE      00008770Aracaju                                                                      00056417Japãozinho                                                                   00000000                                                                        Rua                                                                                                        00725856A                                                                       R A                                 (Jetimana)                          49063115NS                                                                                                        
DSE      00008770Aracaju                                                                      00056417Japãozinho                                                                   00000000                                                                        Travessa                                                                                                   00725859A                                                                       Tv A                                (Jetimana)                          49063118NS                                                                                                        
DSE      00008770Aracaju                                                                      00066492Dom Luciano                                                                  00000000                                                                        Rua                                                                                                        00725940A                                                                       R A                                 (Lot Pau Ferro II)                  49071028NS                                                                                                        
DSE      00008770Aracaju                                                                      00014212Zona de Expansão (Mosqueiro)                                                 00000000                                                                        Rua                                                                                                        00727514A                                                                       R A                                 (Lot Rec Andorinhas)                49008519NS                                                                                                        
DSE      00008770Aracaju                                                                      00014212Zona de Expansão (Mosqueiro)                                                 00000000                                                                        Rua                                                                                                        00727540A                                                                       R A                                 (Lot S Judas Tadeu)                 49008205NS                                                                                                        
DSE      00008770Aracaju                                                                      00014212Zona de Expansão (Mosqueiro)                                                 00000000                                                                        Rua                                                                                                        00727547A                                                                       R A                                 (Lot Galego)                        49008596NS                                                                                                        
DSE      00008770Aracaju                                                                      00014212Zona de Expansão (Mosqueiro)                                                 00000000                                                                        Travessa                                                                                                   00727548A                                                                       Tv A                                (Lot Galego)                        49008602NS                                                                                                        
DSE      00008770Aracaju                                                                      00014212Zona de Expansão (Mosqueiro)                                                 00000000                                                                        Rua                                                                                                        00727564A                                                                       R A                                 (Prq Sta Maria)                     49008710NS                                                                                                        
DSE      00008770Aracaju                                                                      00030721Zona de Expansão (Aruana)                                                    00000000                                                                        Rua                                                                                                        00725180A                                                                       R A                                 (Res Pto Mar I)                     49001123NS                                                                                                        
DSE      00008770Aracaju                                                                      00066492Dom Luciano                                                                  00000000                                                                        Travessa                                                                                                   00725931A                                                                       Tv A                                (Lot Pau Ferro)                     49071078NS                                                                                                        
DSE      00008770Aracaju                                                                      00014200Dezoito do Forte                                                             00000000                                                                        Rua                                                                                                        00726168A                                                                       R A                                 (Lot Manoel Pereira)                49072423NS                                                                                                        
DSE      00008770Aracaju                                                                      00014200Dezoito do Forte                                                             00000000                                                                        Rua                                                                                                        00726171A                                                                       R A                                 (Lot Pto Rico)                      49072573NS                                                                                                        
DSE      00008770Aracaju                                                                      00014200Dezoito do Forte                                                             00000000                                                                        Travessa                                                                                                   00726179A                                                                       Tv A                                (Jd Anita)                          49072649NS                                                                                                        
DSE      00008770Aracaju                                                                      00014200Dezoito do Forte                                                             00000000                                                                        Rua                                                                                                        00726181A                                                                       R A                                 (Lot Cel dos Anjos)                 49072673NS                                                                                                        
DSE      00008770Aracaju                                                                      00014219Zona de Expansão (Robalo)                                                    00000000                                                                        Rua                                                                                                        00727174A                                                                       R A                                 (Lot Beira-Mar)                     49004400NS                                                                                                        
DSE      00008770Aracaju                                                                      00056417Japãozinho                                                                   00000000                                                                        Rua                                                                                                        00725784A                                                                       R A                                 (Lot Altamira)                      49063019NS                                                                                                        
DSE      00008770Aracaju                                                                      00014197Cidade Nova                                                                  00000000                                                                        Rua                                                                                                        00725793A                                                                       R A                                 (Lot Planalto)                      49070193NS                                                                                                        
DSE      00008770Aracaju                                                                      00014215Palestina                                                                    00000000                                                                        Rua                                                                                                        00725393A                                                                       R A                                 (Lot Isabel Martins)                49060673NS                                                                                                        
DSE      00008770Aracaju                                                                      00014205Industrial                                                                   00000000                                                                        Rua                                                                                                        00725456A                                                                       R A                                 (Jd Confiança)                      49065033NS                                                                                                        
DSE      00008770Aracaju                                                                      00014218Porto D'Antas                                                                00000000                                                                        Rua                                                                                                        00725518A                                                                       R A                                 (Lot At da Jaqueira)                49067193NS                                                                                                        
DSE      00008770Aracaju                                                                      00014218Porto D'Antas                                                                00000000                                                                        Rua                                                                                                        00725526A                                                                       R A                                 (Lot Copacabana)                    49067218NS                                                                                                        
DSE      00008770Aracaju                                                                      00014226Soledade                                                                     00000000                                                                        Rua                                                                                                        00726813A                                                                       R A                                 (Lot Mte Belo)                      49089350NS                                                                                                        
DSE      00008770Aracaju                                                                      00014226Soledade                                                                     00000000                                                                        Travessa                                                                                                   00726822A                                                                       Tv A                                (Lot Mte Belo)                      49089371NS                                                                                                        
DSE      00008770Aracaju                                                                      00014226Soledade                                                                     00000000                                                                        Rua                                                                                                        00726825A                                                                       R A                                 (Lot Rosa do Sol)                   49089380NS                                                                                                        
DSE      00008770Aracaju                                                                      00014214Olaria                                                                       00000000                                                                        Rua                                                                                                        00726928A                                                                       R A                                 (Lot alto da Mangueira)             49092699NS                                                                                                        
DSE      00008770Aracaju                                                                      00066492Dom Luciano                                                                  00000000                                                                        Rua                                                                                                        00826795A                                                                       R A                                 (Lot Mte Carlo)                     49071120NS                                                                                                        
DSE      00008770Aracaju                                                                      00066492Dom Luciano                                                                  00000000                                                                        Travessa                                                                                                   01008306A                                                                       Tv A                                (Lot Pau Ferro II)                  49071037NS                                                                                                        
DSE      00008770Aracaju                                                                      00014219Zona de Expansão (Robalo)                                                    00000000                                                                        Rua                                                                                                        00958938A                                                                       R A                                 (Lot Bonanza)                       49005560NS                                                                                                        
DSE      00008770Aracaju                                                                      00066492Dom Luciano                                                                  00000000                                                                        Rua                                                                                                        01027546A                                                                       R A                                 (Cond Hélio Silva)                  49071126NS                                                                                                        
DSE      00008770Aracaju                                                                      00014221Santo Antônio                                                                00000000                                                                        Rua                                                                                                        00843845A                                                                       R A                                 (Res Engenho Velho)                 49061092NS                                                                                                        
DSE      00008770Aracaju                                                                      00014226Soledade                                                                     00000000                                                                        Avenida                                                                                                    00854053A                                                                       Av A                                (Lot Rosa do Sol)                   49089412NS                                                                                                        
DSE      00008770Aracaju                                                                      00014192América                                                                      00000000                                                                        Travessa                                                                                                   00830193A                                                                       Tv A                                (Lot José Olino)                    49080485NS                                                                                                        
DSE      00008770Aracaju                                                                      00014205Industrial                                                                   00000000                                                                        Rua                                                                                                        00826681A                                                                       R A                                 (Lot Marcelo Bezerra)               49066213NS                                                                                                        
DSE      00008770Aracaju                                                                      00014205Industrial                                                                   00000000                                                                        Rua                                                                                                        00826687A                                                                       R A                                 (Lot Morada Rio Doce)               49066225NS                                                                                                        
DSE      00008770Aracaju                                                                      00014205Industrial                                                                   00000000                                                                        Rua                                                                                                        00826693A                                                                       R A                                 (Res Reis Lima)                     49066315NS                                                                                                        
DSE      00008770Aracaju                                                                      00014205Industrial                                                                   00000000                                                                        Travessa                                                                                                   00826694A                                                                       Tv A                                (Res Reis Lima)                     49066318NS                                                                                                        
DSE      00008770Aracaju                                                                      00014197Cidade Nova                                                                  00000000                                                                        Rua                                                                                                        00826723A                                                                       R A                                 (Jd das Palmeiras)                  49070483NS                                                                                                        
DSE      00008770Aracaju                                                                      00014210Lamarão                                                                      00000000                                                                        Rua                                                                                                        00826860A                                                                       R A                                 (Jd das Pedras)                     49088400NS                                                                                                        
DSE      00008770Aracaju                                                                      00014210Lamarão                                                                      00000000                                                                        Rua                                                                                                        00826862A                                                                       R A                                 (Jd Lamarão)                        49088410NS                                                                                                        
DSE      00008770Aracaju                                                                      00014206Jabotiana                                                                    00000000                                                                        Travessa                                                                                                   00830057A                                                                       Tv A                                (Jd Coqueiros)                      49096271NS                                                                                                        
DSE      00008770Aracaju                                                                      00014200Dezoito do Forte                                                             00000000                                                                        Rua                                                                                                        00826778A                                                                       R A                                 (Lot Mangueira)                     49072629NS                                                                                                        
DSE      00008770Aracaju                                                                      00014200Dezoito do Forte                                                             00000000                                                                        Rua                                                                                                        00826780A                                                                       R A                                 (Lot JK)                            49072639NS                                                                                                        
DSE      00008770Aracaju                                                                      00014207Jardim Centenário                                                            00000000                                                                        Rua                                                                                                        00827734A                                                                       R A                                 (Res Amintas Garcez)                49090493NS                                                                                                        
DSE      00008770Aracaju                                                                      00014214Olaria                                                                       00000000                                                                        Travessa                                                                                                   00827544A                                                                       Tv A                                (Lot Nova Liberdade I)              49092708NS                                                                                                        
DSE      00008770Aracaju                                                                      00014222Santos Dumont                                                                00000000                                                                        Travessa                                                                                                   00827231A                                                                       Tv A                                (Jd Stos Dumont)                    49087434NS                                                                                                        
DSE      00008770Aracaju                                                                      00014212Zona de Expansão (Mosqueiro)                                                 00000000                                                                        Travessa                                                                                                   00829164A                                                                       Tv A                                (Pov Escurial)                      49008790NS                                                                                                        
DSE      00008770Aracaju                                                                      00066492Dom Luciano                                                                  00000000                                                                        Travessa                                                                                                   00834467A                                                                       Tv A                                (Lot Dendê)                         49071114NS                                                                                                        
DSE      00008770Aracaju                                                                      00014201Farolândia                                                                   00000000                                                                        Rua                                                                                                        00819418A                                                                       R A                                 (Lot Aningas)                       49031410NS                                                                                                        
DSE      00008770Aracaju                                                                      00014197Cidade Nova                                                                  00000000                                                                        Rua                                                                                                        00819438A                                                                       R A                                 (Lot Viúva)                         49070093NS                                                                                                        
DSE      00008770Aracaju                                                                      00014222Santos Dumont                                                                00000000                                                                        Travessa                                                                                                   00827037A                                                                       Tv A                                (Lot S José)                        49087281NS                                                                                                        
DSE      00008770Aracaju                                                                      00014197Cidade Nova                                                                  00000000                                                                        Rua                                                                                                        00786799A                                                                       R A                                                                     49070073NS                                                                                                        
DSE      00008770Aracaju                                                                      00014206Jabotiana                                                                    00000000                                                                        Rua                                                                                                        00790082A                                                                       R A                                 (Anexo II)                          49095618NS                                                                                                        
DSE      00008770Aracaju                                                                      00014218Porto D'Antas                                                                00000000                                                                        Rua                                                                                                        00881565A                                                                       R A                                 (Cj Cleonaldo S Araújo)             49069219NS                                                                                                        
DSE      00008770Aracaju                                                                      00014221Santo Antônio                                                                00000000                                                                        Rua                                                                                                        00871559A                                                                       R A                                 (Jd Petrópolis)                     49061124NS                                                                                                        
DSE      00008770Aracaju                                                                      00014194Bugio                                                                        00000000                                                                        Travessa                                                                                                   00856673A                                                                       Tv A                                (Invasão do Bugio)                  49090523NS                                                                                                        
DSE      00008770Aracaju                                                                      00014199Coroa do Meio                                                                00000000                                                                        Rua                                                                                                        00723828A                                                                       R A                                 (Cj Marcelo Deda)                   49035623NS                                                                                                        
DSE      00008770Aracaju                                                                      00014201Farolândia                                                                   00000000                                                                        Rua                                                                                                        00723953A                                                                       R A                                 (Lot Sr do Bonfim)                  49032476NS                                                                                                        
DSE      00008770Aracaju                                                                      00014201Farolândia                                                                   00000000                                                                        Travessa                                                                                                   00723956A                                                                       Tv A                                (Lot Sr do Bonfim)                  49032479NS                                                                                                        
DSE      00008770Aracaju                                                                      00014193Atalaia                                                                      00000000                                                                        Rua                                                                                                        00723962A                                                                       R A                                 (Lot Atalaia Sul)                   49038013NS                                                                                                        
DSE      00008770Aracaju                                                                      00014201Farolândia                                                                   00000000                                                                        Rua                                                                                                        00723925A                                                                       R A                                 (Jd Sto Antônio)                    49032293NS                                                                                                        
DSE      00008770Aracaju                                                                      00030721Zona de Expansão (Aruana)                                                    00000000                                                                        Rua                                                                                                        00725062A                                                                       R A                                 (Lot Costa Verde)                   49001096NS                                                                                                        
DSE      00008770Aracaju                                                                      00030721Zona de Expansão (Aruana)                                                    00000000                                                                        Rua                                                                                                        00724947A                                                                       R A                                 (Res Águas Belas)                   49001353NS                                                                                                        
DSE      00008770Aracaju                                                                      00014228Santa Maria                                                                  00000000                                                                        Travessa                                                                                                   00722849A                                                                       Tv A                                (Lot Sr do Bomfim)                  49043640NS                                                                                                        
DSE      00008770Aracaju                                                                      00014228Santa Maria                                                                  00000000                                                                        Travessa                                                                                                   00722855A                                                                       Tv A                                (Lot Jd Recreio)                    49043669NS                                                                                                        
DSE      00008770Aracaju                                                                      00030721Zona de Expansão (Aruana)                                                    00000000                                                                        Rua                                                                                                        00724851A                                                                       R A                                 (Cj Franco Freire I)                49000695NS                                                                                                        
DSE      00008770Aracaju                                                                      00014222Santos Dumont                                                                00000000                                                                        Rua                                                                                                        00726406A                                                                       R A                                 (Res Stos Dumont)                   49087216NS                                                                                                        
DSE      00008770Aracaju                                                                      00014222Santos Dumont                                                                00000000                                                                        Rua                                                                                                        00726417A                                                                       R A                                 (Terminal Maracaju)                 49087296NS                                                                                                        
DSE      00008770Aracaju                                                                      00014222Santos Dumont                                                                00000000                                                                        Rua                                                                                                        00726440A                                                                       R A                                 (Lot Bahamas)                       49087473NS                                                                                                        
DSE      00008770Aracaju                                                                      00014226Soledade                                                                     00000000                                                                        Rua                                                                                                        00726572A                                                                       R A                                 (Inv Sta Catarina)                  49089100NS                                                                                                        
DSE      00008770Aracaju                                                                      00014226Soledade                                                                     00000000                                                                        Rua                                                                                                        00726584A                                                                       R A                                 (Lot Pto Gringo)                    49089150NS                                                                                                        
DSE      00008770Aracaju                                                                      00014191Aeroporto                                                                    00000000                                                                        Rua                                                                                                        00724516A                                                                       R A                                 (Lot JC Barros)                     49037858NS                                                                                                        
DSE      00008770Aracaju                                                                      00014228Santa Maria                                                                  00000000                                                                        Rua                                                                                                        00723205A                                                                       R A                                 (Lot P do Sul)                      49044412NS                                                                                                        
DSE      00008770Aracaju                                                                      00014226Soledade                                                                     00000000                                                                        Rua                                                                                                        00726639A                                                                       R A                                 (Jd Bahia)                          49089240NS                                                                                                        
DSE      00008770Aracaju                                                                      00014197Cidade Nova                                                                  00000000                                                                        Rua                                                                                                        00726053A                                                                       R A                                 (Lot Maracaju I)                    49070781NS                                                                                                        
DSE      00008770Aracaju                                                                      00014197Cidade Nova                                                                  00000000                                                                        Rua                                                                                                        00726067A                                                                       R A                                 (Lot At Bela Vista)                 49070823NS                                                                                                        
DSE      00008770Aracaju                                                                      00014191Aeroporto                                                                    00000000                                                                        Rua                                                                                                        00724506A                                                                       R A                                 (Lot Sta Clara)                     49037699NS                                                                                                        
DSE      00008770Aracaju                                                                      00066492Dom Luciano                                                                  00000000                                                                        Rua                                                                                                        00726086A                                                                       R A                                 (Lot Patrícia)                      49071203NS                                                                                                        
DSE      00008770Aracaju                                                                      00014214Olaria                                                                       00000000                                                                        Travessa                                                                                                   00727027A                                                                       Tv A                                (Cj Mª do Carmo I)                  49092657NS                                                                                                        
DSE      00008770Aracaju                                                                      00014214Olaria                                                                       00000000                                                                        Rua                                                                                                        00727029A                                                                       R A                                 (Lot Nova Liberdade I)              49092660NS                                                                                                        
DSE      00008770Aracaju                                                                      00014219Zona de Expansão (Robalo)                                                    00000000                                                                        Rua                                                                                                        00727602A                                                                       R A                                 (Lot Solares)                       49004577NS                                                                                                        
DSE      00008770Aracaju                                                                      00014219Zona de Expansão (Robalo)                                                    00000000                                                                        Rua                                                                                                        00727677A                                                                       R A                                 (Rec das Águas)                     49004784NS                                                                                                        
DSE      00008770Aracaju                                                                      00014219Zona de Expansão (Robalo)                                                    00000000                                                                        Rua                                                                                                        00727694A                                                                       R A                                 (Lot Pr dos Coqueiros)              49005083NS                                                                                                        
DSE      00008770Aracaju                                                                      00030722Zona de Expansão (Areia Branca)                                              00000000                                                                        Rua                                                                                                        00727083A                                                                       R A                                 (Lot Sta Maria)                     49007015NS                                                                                                        
DSE      00008770Aracaju                                                                      00030722Zona de Expansão (Areia Branca)                                              00000000                                                                        Rua                                                                                                        00727217A                                                                       R A                                 (Lot Beira Rio)                     49007196NS                                                                                                        
DSE      00008770Aracaju                                                                      00030722Zona de Expansão (Areia Branca)                                              00000000                                                                        Rua                                                                                                        00727231A                                                                       R A                                 (Lot S José)                        49007250NS                                                                                                        
DSE      00008770Aracaju                                                                      00014212Zona de Expansão (Mosqueiro)                                                 00000000                                                                        Travessa                                                                                                   00727270A                                                                       Tv A                                (Lot Rec Andorinhas)                49008522NS                                                                                                        
DSE      00008770Aracaju                                                                      00014212Zona de Expansão (Mosqueiro)                                                 00000000                                                                        Rua                                                                                                        00727296A                                                                       R A                                 (Lot Rosas do Mar)                  49008015NS                                                                                                        
DSE      00008770Aracaju                                                                      00014212Zona de Expansão (Mosqueiro)                                                 00000000                                                                        Rua                                                                                                        00727347A                                                                       R A                                 (Lot N Sra de Lourdes)              49008303NS                                                                                                        
DSE      00008770Aracaju                                                                      00014212Zona de Expansão (Mosqueiro)                                                 00000000                                                                        Rua                                                                                                        00727361A                                                                       R A                                 (Prq N Sra de Fátima)               49008366NS                                                                                                        
DSE      00008770Aracaju                                                                      00014212Zona de Expansão (Mosqueiro)                                                 00000000                                                                        Travessa                                                                                                   00727408A                                                                       Tv A                                (Lot Pto das Canoas II)             49008411NS                                                                                                        
DSE      00008770Aracaju                                                                      00014194Bugio                                                                        00000000                                                                        Travessa                                                                                                   00726890A 1                                                                     Tv A 1                              (CJ Bugio I)                        49090060NS                                                                                                        
DSE      00008770Aracaju                                                                      00066492Dom Luciano                                                                  00000000                                                                        Travessa                                                                                                   00725932AB                                                                      Tv AB                               (Lot Pau Ferro)                     49071081NS                                                                                                        
DSE      00008770Aracaju                                                                      00014191Aeroporto                                                                    00000000                                                                        Alameda                   dos                                                                              00909725Abaís                                                                   Al dos Abaís                                                            49037770NS                                                                                                        
DSE      00008770Aracaju                                                                      00014215Palestina                                                                    00000000                                                                        Rua                                                                                                        00354729Abdias Bezerra                                                          R Abdias Bezerra                                                        49060010NS                                                                                                        
DSE      00008770Aracaju                                                                      00014211Luzia                                                                        00000000                                                                        Rua                                                                                                        00354730Abdias Nascimento                                                       R Abdias Nascimento                                                     49046050NS                                                                                                        
DSE      00008770Aracaju                                                                      00014222Santos Dumont                                                                00000000                                                                        Praça                        Professor                                                                     00356459Abelardo Monteiro                                                       Pç Prf Abelardo Monteiro                                                49087490NS                                                                                                        
DSE      00008770Aracaju                                                                      0005655217 de Março                                                                  00000000                                                                        Rua                                                                                                        00839339Abelardo Romero                                                         R Abelardo Romero                                                       49003367NS                                                                                                        
DSE      00008770Aracaju                                                                      00014217Ponto Novo                                                                   00000000                                                                        Rua                                                                                                        00354731Abgail Ferreira Araújo Ramos                                            R Abgail F A Ramos                                                      49047440NS                                                                                                        
DSE      00008770Aracaju                                                                      00014211Luzia                                                                        00000000                                                                        Rua                          Dona                                                                          00961148Abigail Ferreira Araújo Ramos                                           R Da Abigail F A Ramos                                                  49045256NS                                                                                                        
DSE      00008770Aracaju                                                                      00014223São Conrado                                                                  00000000                                                                        Rua                                                                                                        00354732Abílio Ferreira                                                         R Abílio Ferreira                                                       49042010NS                                                                                                        
DSE      00008770Aracaju                                                                      00014213Novo Paraíso                                                                 00000000                                                                        Rua                                                                                                        00354733Abolição                                                                R Abolição                                                              49082010NS                                                                                                        
DSE      00008770Aracaju                                                                      00014201Farolândia                                                                   00000000                                                                        Rua                                                                                                        00723853Abrahão Crispim de Souza                                                R Abrahão C de Souza                                                    49030293NS                                                                                                        
DSE      00008770Aracaju                                                                      00014201Farolândia                                                                   00000000                                                                        Travessa                                                                                                   00723949Acácias                                                                 Tv Acácias                                                              49032463NS                                                                                                        
DSE      00008770Aracaju                                                                      00014202Getúlio Vargas                                                               00000000                                                                        Praça                                                                                                      00354734Accioly Porto                                                           Pç Accioly Porto                                                        49055010NS                                                                                                        
DSE      00008770Aracaju                                                                      00014206Jabotiana                                                                    00000000                                                                        Rua                                                                                                        00354735Accioly Porto                                                           R Accioly Porto                                                         49095010NS                                                                                                        
DSE      00008770Aracaju                                                                      00066492Dom Luciano                                                                  00000000                                                                        Rua                          Comunitária                                                                   00355199Acioli Santos                                                           R Cmta Acioli Santos                                                    49071320NS                                                                                                        
DSE      00008770Aracaju                                                                      00014225Siqueira Campos                                                              00000000                                                                        Travessa                                                                                                   00722272Acre                                                                    Tv Acre                                                                 49075013NS                                                                                                        
DSE      00008770Aracaju                                                                      00014200Dezoito do Forte                                                             00000000                                                                        Rua                                                                                                        00354736Acre                                                                    R Acre                                                                  49072010NS                                                                                                        
SSE      00008770Aracaju                                                                      00014225Siqueira Campos                                                              00000000                                                                        Rua                                                                                                        00354737Acre                                                                    R Acre                                                                  49075020S1          2501       I00020433S                                                                         
SSE      00008770Aracaju                                                                      00014225Siqueira Campos                                                              00000000                                                                        Rua                                                                                                        00354737Acre                                                                    R Acre                                                                  49075010S2          1084       P00020432S                                                                         
SSE      00008770Aracaju                                                                      00014192América                                                                      00000000                                                                        Rua                                                                                                        00354737Acre                                                                    R Acre                                                                  49080010S1086       2504       P00020434S                                                                         
SSE      00008770Aracaju                                                                      00014217Ponto Novo                                                                   00000000                                                                        Rua                                                                                                        00354737Acre                                                                    R Acre                                                                  49097010S2505       99999      A00020435S                                                                         
SSE      00008770Aracaju                                                                      00014229Treze de Julho                                                               00000000                                                                        Avenida                      Professor                                                                     00356460Acrísio Cruz                                                            Av Prf Acrísio Cruz                                                     49020625N1          99999      I00088377S                                                                         
SSE      00008770Aracaju                                                                      00014220Salgado Filho                                                                00000000                                                                        Avenida                      Professor                                                                     00356460Acrísio Cruz                                                            Av Prf Acrísio Cruz                                                     49020210N2          99998      P00020649S                                                                         
SSE      00008770Aracaju                                                                      00014229Treze de Julho                                                               00000000                                                                        Avenida                      Professor                                                                     00356460Acrísio Cruz                                                            Av Prf Acrísio Cruz                                                     49020630N2          99998      P00088376S                                                                         
DSE      00008770Aracaju                                                                      00014201Farolândia                                                                   00000000                                                                        Praça                                                                                                      00354738Acrísio Garcez                                                          Pç Acrísio Garcez                                                       49030010NS                                                                                                        
DSE      00008770Aracaju                                                                      00014217Ponto Novo                                                                   00000000                                                                        Avenida                                                                                                    00751089Acrísio Garcez                                                          Av Acrísio Garcez                                                       49097050NS                                                                                                        
DSE      00008770Aracaju                                                                      00014208Jardins                                                                      00000000                                                                        Rua                                                                                                        00354739Acrísio Moreira Siqueira                                                R Acrísio Moreira Siqueira                                              49025340NS                                                                                                        
DSE      00008770Aracaju                                                                      00014217Ponto Novo                                                                   00000000                                                                        Rua                                                                                                        00722419AD                                                                      R AD                                                                    49047023NS                                                                                                        
DSE      00008770Aracaju                                                                      00014209José Conrado de Araújo                                                       00000000                                                                        Travessa                                                                                                   00726223Adalberto                                                               Tv Adalberto                                                            49085213NS                                                                                                        
DSE      00008770Aracaju                                                                      00030721Zona de Expansão (Aruana)                                                    00000000                                                                        Rua                                                                                                        00724921Adalberto Fonseca                                                       R Adalberto Fonseca                 (Cj Brisa Mar)                      49000393NS                                                                                                        
DSE      00008770Aracaju                                                                      00014201Farolândia                                                                   00000000                                                                        Rua                          Fiscal                                                                        00355495Adalberto Menezes de Andrade                                            R Fisc Adalberto M de Andrade                                           49030350NS                                                                                                        
DSE      00008770Aracaju                                                                      00030721Zona de Expansão (Aruana)                                                    00000000                                                                        Rua                                                                                                        00725030Adalgisa de Oliveira                                                    R Adalgisa de Oliveira                                                  49001168NS                                                                                                        
DSE      00008770Aracaju                                                                      00014194Bugio                                                                        00000000                                                                        Rua                                                                                                        00355543Adalto Barbosa da Costa                                                 R Adalto B da Costa                                                     49090730NS                                                                                                        
DSE      00008770Aracaju                                                                      00014202Getúlio Vargas                                                               00000000                                                                        Travessa                                                                                                   00354740Adalto Botelho                                                          Tv Adalto Botelho                                                       49055020NS                                                                                                        
DSE      00008770Aracaju                                                                      00014201Farolândia                                                                   00000000                                                                        Rua                          Presbítero                                                                    00356441Adel Alves Oliveira                                                     R Presb Adel A Oliveira                                                 49031120NS                                                                                                        
DSE      00008770Aracaju                                                                      00014201Farolândia                                                                   00000000                                                                        Avenida                      Doutor                                                                        00355280Adel Nunes                                                              Av Dr Adel Nunes                                                        49030250NS                                                                                                        
DSE      00008770Aracaju                                                                      00014209José Conrado de Araújo                                                       00000000                                                                        Rua                                                                                                        00354741Adelaide de Souza Ferraz                                                R Adelaide de S Ferraz                                                  49085010NS                                                                                                        
SSE      00008770Aracaju                                                                      00014204Inácio Barbosa                                                               00000000                                                                        Avenida                                                                                                    00354742Adelbrando Franco Menezes                                               Av Adelbrando F Menezes                                                 49040010N1          99999      I00020436S                                                                         
SSE      00008770Aracaju                                                                      00014211Luzia                                                                        00000000                                                                        Avenida                                                                                                    00354742Adelbrando Franco Menezes                                               Av Adelbrando F Menezes                                                 49045010N2          99998      P00020437S                                                                         
DSE      00008770Aracaju                                                                      00014211Luzia                                                                        00000000                                                                        Rua                                                                                                        00354743Adelermo Brito Bomfim                                                   R Adelermo B Bomfim                                                     49045020NS                                                                                                        
SSE      00008770Aracaju                                                                      00014203Grageru                                                                      00000000                                                                        Avenida                                                                                                    00354744Adélia Franco                                                           Av Adélia Franco                                                        49027010S1          3249       I00020439S                                                                         
SSE      00008770Aracaju                                                                      00014211Luzia                                                                        00000000                                                                        Avenida                                                                                                    00354744Adélia Franco                                                           Av Adélia Franco                                                        49048010S2234       9998       P00020438S                                                                         
SSE      00008770Aracaju                                                                      00014204Inácio Barbosa                                                               00000000                                                                        Avenida                                                                                                    00354744Adélia Franco                                                           Av Adélia Franco                                                        49040020S3251       99999      I00020440S                                                                         
DSE      00008770Aracaju                                                                      00014201Farolândia                                                                   00000000                                                                        Rua                          Coronel                                                                       00355148Adelino Domingos da Silva                                               R Cel Adelino D da Silva                                                49030160NS                                                                                                        
DSE      00008770Aracaju                                                                      00014228Santa Maria                                                                  00000000                                                                        Rua                                                                                                        00722852Adelino Nascimento                                                      R Adelino Nascimento                (Lot Jd Recreio)                    49043663NS                                                                                                        
DSE      00008770Aracaju                                                                      00014223São Conrado                                                                  00000000                                                                        Rua                          Capitão                                                                       00355039Ademário Rodrigues do Nascimento                                        R Cap Ademário R do Nascimento                                          49042070NS                                                                                                        
DSE      00008770Aracaju                                                                      00014201Farolândia                                                                   00000000                                                                        Rua                                                                                                        00723896Adenilde da Conceição Francisca                                         R Adenilde da Conceição Francisca                                       49031076NS                                                                                                        
DSE      00008770Aracaju                                                                      00014194Bugio                                                                        00000000                                                                        Travessa                                                                                                   00826770Adilson Matos                                                           Tv Adilson Matos                                                        49090792NS                                                                                                        
DSE      00008770Aracaju                                                                      00014224São José                                                                     00000000                                                                        Travessa                                                                                                   00354746Adolfo Rollemberg                                                       Tv Adolfo Rollemberg                                                    49015010NS                                                                                                        
DSE      00008770Aracaju                                                                      00014223São Conrado                                                                  00000000                                                                        Rua                          Expedicionário                                                                00355454Adolfo Rosendo Santos                                                   R Exp Adolfo R Santos                                                   49043180NS                                                                                                        
